:100000000C94E9090C94FA520C94CF520C94A4521B
:100010000C9479520C944E520C9423520C94F85137
:100020000C94CD510C941A0A0C941A0A0C941A0AC6
:100030000C941A0A0C941A0A0C941A0A0C941A0AB0
:100040000C941A0A0C941A0A0C941A0A0C941A0AA0
:100050000C941A0A0C941A0A0C941A0A0C948351E0
:100060000C941A0A0C944E510C9424510C941A0AB4
:100070000C941A0A0C941A0A0C941A0A0C941A0A70
:100080000C941A0A0C941A0A0C941A0A0C941A0A60
:100090000C941A0A0C941A0A0C941A0A0C941A0A50
:1000A0000C941A0A0C941A0A0C941A0A0C941A0A40
:1000B0000C941A0A0C941A0A0C941A0A0C941A0A30
:1000C0000C941A0A0C941A0A0C941A0A0C941A0A20
:1000D0000C941A0A0C941A0A0C941A0A0C941A0A10
:1000E0000C941A0A0C94FB280C945E440C94E2497C
:1000F0000C94AF0B0C942A480C940E490C949C0B56
:100100000C945C4D0C941B0B0C94C10B0C941F1F96
:100110000C94FE470C942D480C94A90B0C9431457B
:100120000C9499450C94980B0C94FE280C94CA0BD3
:100130000C94BD0B0C94A70A0C94490A0C94AC4483
:100140000C9428450C94404F0C94D3440C94A94F24
:100150000C94960C0C949F0B0C94221F0C94AD4F96
:100160000C94B30B0C94990A0C94900B0C94B51D41
:100170000C9480230C941C1F0C9414480C945C4326
:100180000C942D1E0C94C50B0C94FB440C94D70AB4
:100190000C94760A0C94B70B0C94CB0B0C94CE4AAF
:1001A0000C94940B0C94CF0B0C948A0B0C94655C00
:1001B0000C940D240C94A50B0C94C9450C940A4482
:1001C0000C941B430C94420A0C9463450C94860ACD
:1001D0000C9490546364696E6F70737578585B000B
:1001E00052583A2025732072785F786D69745F6584
:1001F00073282530346F290A0A0052583A20494E94
:10020000495420686173202573636C65617265646D
:1002100020743D256C756D730A0052583A20776141
:100220006974696E6720666F7220494E4954207464
:100230006F20636C656172202E2E2E20743D256C1C
:10024000756D730A0052583A20257320576F7264F7
:1002500025643A202530336F202530336F0A005251
:10026000583A20257320576F726425643A20253050
:10027000336F202530336F0A0052583A20257320FF
:10028000576F726425643A202530336F2025303350
:100290006F0A0052583A20257320576F7264256404
:1002A0003A202530336F202530336F0A0052583AF8
:1002B00020257320706F733D256C752E206C656E44
:1002C0003D25752E0A0052583A2025732074613D51
:1002D0002530336F0A0052583A2025732073613D50
:1002E0002530336F0A0052583A202573207A657200
:1002F0006F2066696C6C20627566666572202530B9
:10030000336F2E2E2530336F0A000A000A00202595
:1003100030346F00202530336F0052583A20257357
:10032000202530336F3A000A000A00202530346F50
:1003300000202530336F0052583A20257320253095
:10034000336F3A0052583A2025732077633D2530A9
:10035000336F2057434F56460A0052583A202573B0
:100360002077633D2530336F0A0052583A202573B9
:1003700020756E69743D256F2064656E3D25630AA6
:100380000052583A20636D643D2530346F0A000AEC
:1003900000202020202072782E6472765B25645D18
:1003A0002E6C656E203D2025752E0A002020202011
:1003B0002072782E6472765B25645D2E706F7320D8
:1003C0003D20256C752E0A002020202020207278E8
:1003D0002E6472765B25645D2E7361203D2025308E
:1003E000336F0A0020202020202072782E6472763D
:1003F0005B25645D2E7461203D202530336F0A003B
:10040000202020202072782E6472765B25645D2E79
:1004100064656E203D2025630A0020202020207284
:10042000782E6472765B25645D2E726479203D209F
:1004300025630A002020202072782E6472765B25C6
:10044000645D2E6D6F6465203D205225630A002097
:1004500020202072782E6472765B25645D2E6E619A
:100460006D65203D20272573270A000A0020207291
:10047000782E66636E2E6E616D65203D2025730AB1
:1004800000202072782E66636E2E636F6465203DB7
:1004900020256F0A002020202072782E74696D6953
:1004A0006E67203D20256F0A002020202072782EC4
:1004B000657272636E74203D2025752E0A0020201F
:1004C000202072782E636D64636E74203D20257544
:1004D0002E0A0020202020202072782E747970654A
:1004E000203D2052583025640A0020202020202062
:1004F00072782E756E6974203D20256F0A002020C9
:10050000202020202072782E64656E203D202563F7
:100510000A002020202020202072782E6C656E207A
:100520003D2025752E0A00202020202020207278D2
:100530002E706F73203D20256C752E0A0020202020
:10054000202020202072782E7361203D202530331A
:100550006F0A00202020202020202072782E746135
:10056000203D202530336F0A00202020202020202D
:100570002072782E7463203D202530336F0A0020CE
:100580002020202020202072782E7763203D2025F7
:1005900030336F0A00202020202020202072782E67
:1005A0006563203D202530346F0A00202020202064
:1005B00020202072782E6573203D202530346F0A6C
:1005C00000202020202020202072782E6373203DE0
:1005D000202530366F0A000A0020202020202069C4
:1005E0002F662072756E203D20256F0A0020202086
:1005F0002020692F6620696E6974203D20256F0ACE
:10060000002020202020692F66206D6F6465203D2A
:100610002025730A0020202020692F662077696436
:100620007468203D2025642E0A000A0A2D2D2D20F5
:10063000525820456D756C61746F722053746174EB
:10064000652044756D70202D2D2D0A0A003F556ED2
:100650006B6E6F776E20636F6D6D616E643F0A0025
:100660000A4E6F74653A20636861727320696E2068
:10067000282920617265206F7074696F6E616C2E1D
:10068000204361736520646F6573206E6F74206D05
:1006900061747465722E0A0020206828656C7029C8
:1006A00020202020202020202D2D20646973706CB4
:1006B0006179207468697320746578740A00202059
:1006C000202020202020202020202020202020202A
:1006D00020666F726D61742069733A2059595959B7
:1006E0002D4D4D2D44442048483A4D4D3A5353200A
:1006F0006F7220595959592D4D4D2D444420484869
:100700003A4D4D0A0020207A286170292053544127
:100710004D502020202D2D2073657420637572723A
:10072000656E742074696D657374616D7020666F99
:10073000722066696C65206163636573730A0020CB
:100740002077287269746529202020202020202D00
:100750002D2077726974652063757272656E7420DE
:10076000636F6E66696775726174696F6E20696E1A
:10077000746F207468652053455455502E494E4976
:100780002066696C650A0020206B28696C6C292042
:10079000202020202020202D2D206B696C6C2074BF
:1007A000686520656D756C61746F72202872657361
:1007B000657420616E6420726573746172742C209C
:1007C0006C696B6520726573657420627574746FF3
:1007D0006E290A00202069286E69742920202020B3
:1007E000202020202D2D20696E697469616C697A42
:1007F0006520656D756C61746F7220286C696B651E
:1008000020756E6962757320494E4954290A00208B
:1008100020702872696E7429202020202020202D2D
:100820002D207072696E742066756C6C20656D7514
:100830006C6174696F6E2073746174650A002020A6
:100840007328686F772920202020202020202D2D3C
:100850002073686F772063757272656E7420756E91
:1008600069742066696C656E616D6520617373697A
:10087000676E6D656E74730A0020206C286973744E
:100880002920202020202020202D2D206C69737409
:1008900020616C6C2066696C6573206F6E207468D3
:1008A0006520534420636172640A0020206620465C
:1008B000494C454E414D45202020202D2D20657866
:1008C00074656E642F7472756E63617465206669F9
:1008D0006C652046494C454E414D4520746F20645F
:1008E0006F75626C652064656E73697479207369D5
:1008F0007A650A002020652046494C454E414D4509
:10090000202020202D2D20657874656E642F747250
:10091000756E636174652066696C652046494C4557
:100920004E414D4520746F2073696E676C6520647D
:10093000656E736974792073697A650A0020207284
:100940002046494C454E414D45202020202D2D204C
:1009500072656D6F76652066696C652046494C4509
:100960004E414D450A00202020202020202020201C
:10097000202020202020202020302061732066614C
:10098000737420617320706F737369626C653B20B0
:10099000322073696D756C61746573207265616C6A
:1009A00020525830322064726976650A0020207423
:1009B00028696D696E6729204E202020202D2D206A
:1009C00074696D696E67206D6F64652C20303D66BB
:1009D0006173742C20313D6D656469756D2C203216
:1009E0003D6E6F726D616C3B2064656661756C7401
:1009F00020300A00202064286562756729204E2077
:100A0000202020202D2D206465627567206C65767E
:100A1000656C2C20303D6E6F6E652C20333D6D6112
:100A2000783B2064656661756C7420310A00323D44
:100A3000525830322B616E793B2064656661756C6B
:100A40007420320A0020206D286F646529204E2012
:100A500020202020202D2D2073657420656D756C5D
:100A60006174696F6E206D6F64652C20303D525843
:100A700030312B525831312C20313D525830312BEE
:100A8000525838452C200020206E286F29204E20F7
:100A9000202020202020202D2D2073657420756EAD
:100AA0006974204E2066696C6520726561642D6FE3
:100AB0006E6C790A0020207928657329204E202049
:100AC00020202020202D2D2073657420756E6974E0
:100AD000204E2066696C6520726561642D777269AD
:100AE0007465202864656661756C74290A0020208D
:100AF00020202020202020202020202020202020F6
:100B00002066696C65206E616D6520276E6F6E656D
:100B1000272028616E7920636173652920666F72D2
:100B2000206E6F206469736B2070726573656E74DC
:100B30000A002020312046494C454E414D45202099
:100B400020202D2D2073657420756E69742031204E
:100B500066696C6520746F2046494C454E414D4591
:100B60003B2064656661756C74205258312E445385
:100B70004B0A002020202020202020202020202080
:100B800020202020202066696C65206E616D652024
:100B9000276E6F6E65272028616E7920636173650B
:100BA0002920666F72206E6F206469736B207072EB
:100BB0006573656E740A002020302046494C454E0E
:100BC000414D45202020202D2D2073657420756E09
:100BD000697420302066696C6520746F2046494C2A
:100BE000454E414D453B2064656661756C742052ED
:100BF00058302E44534B0A000A436F6D6D616E648A
:100C00007320617661696C61626C653A0A0A00253D
:100C10003034642D253032642D2530326420253067
:100C200032643A253032643A253032640A00556E17
:100C30007265636F676E697A656420666F726D6155
:100C4000742C2075736520595959592D4D4D2D44DB
:100C5000442048483A4D4D0A00496E76616C6964FB
:100C600020646174652F74696D6520666F726D61B3
:100C700074210A00446174652F74696D6520736581
:100C800074210A00496E76616C6964206461746540
:100C90002F74696D6520666F726D6174210A00445E
:100CA0006174652F74696D6520736574210A002A6B
:100CB0002A2A2053484F554C44204E455645522031
:100CC00047455420484552452A2A2A0A000A2A2A1A
:100CD0002A205265626F6F74696E672074686520A0
:100CE000656D756C61746F72202A2A2A0A002E2E97
:100CF0002E20494E495420636F6D706C6574650AEF
:100D00000053656E64696E6720494E4954202E2E4B
:100D10002E0A0053657474696E672074696D696E7C
:100D200067206D6F64653A20256420282573290AA1
:100D30000043757272656E742074696D696E672008
:100D40006D6F64653A20256420282573290A0053B5
:100D5000657474696E67206465627567206D6F6481
:100D6000653A20256420282573290A00437572728C
:100D7000656E74206465627567206D6F64653A20E6
:100D8000256420282573290A0053657474696E67E9
:100D900020656D756C6174696F6E206D6F64653A66
:100DA00020256420282573290A0043757272656E18
:100DB0007420656D756C6174696F6E2074797065EF
:100DC0003A20256420282573290A0043757272652C
:100DD0006E742066696C655B25645D3A2027257317
:100DE0002720282573290A004E6F20737563682019
:100DF00066696C650A0052656D6F76656420666988
:100E00006C653A20272573270A0053657474696E50
:100E1000672066696C655B25645D206D6F64653A6B
:100E20002025730A0053657474696E672066696CC7
:100E3000655B25645D206D6F64653A2025730A004B
:100E40005472756E63617465642066696C653A20DE
:100E50002725732720746F20256C752E20627974E6
:100E6000657320284444290A00457874656E6465DA
:100E7000642066696C653A202725732720746F20EB
:100E8000256C752E20627974657320284444290AE4
:100E900000556E6368616E6765642066696C653ACB
:100EA000202725732720697320256C752E206279F1
:100EB00074657320284444290A00556E6368616E86
:100EC0006765642066696C653A2027257327206969
:100ED0007320256C752E20627974657320287573D4
:100EE00065204520636F6D6D616E64290A00547240
:100EF000756E63617465642066696C653A202725A8
:100F0000732720746F20256C752E206279746573A9
:100F100020285344290A00457874656E646564206E
:100F200066696C653A202725732720746F20256C2D
:100F3000752E20627974657320285344290A005560
:100F40006E6368616E6765642066696C653A202728
:100F500025732720697320256C752E2062797465AE
:100F60007320285344290A00556E6368616E6765D3
:100F7000642066696C653A202725732720697320F1
:100F8000256C752E20627974657320287573652031
:100F90004620636F6D6D616E64290A00437572723D
:100FA000656E742066696C655B25645D3A20272553
:100FB00073270A005741524E494E473A2066696CE2
:100FC000652073697A65204444206D6F756E746581
:100FD0006420696E206D6F64652052583031210A9B
:100FE000005741524E494E473A2066696C6520735E
:100FF000697A65206E6F74205344206F72204444D8
:10100000202E2E2E2075736520452F4620636F6D90
:101010006D616E6420746F20636F727265637421FA
:101020000A0053657474696E672066696C655B2598
:10103000645D3A20272573270A0055706461746542
:10104000642066696C653A202725732720746F2019
:10105000256C752E2062797465730A005570646181
:101060007465642066696C653A20272573272074AF
:101070006F20256C752E2062797465730A000A0052
:101080005E550A0000002200250028002B002E00DB
:101090003100340002010000050108010B010000CD
:1010A00020002300260029002C002F003200000120
:1010B000000003010601090100000A0B02090C0DE2
:1010C0000E080703040100000000000000000000FB
:1010D0000000000000000000000000000000000010
:1010E00000000000121110000000000000000000CD
:1010F0000000000000000000000000000000436845
:1011000065636B20534420666F726D61742E002CF2
:1011100030580053644572726F723A203058004E56
:101120006F20636172642C2077726F6E6720636832
:1011300069702073656C6563742070696E2C206F14
:101140007220776972696E67206572726F723F00F4
:10115000446F206E6F74207265666F726D617420CB
:101160007468652053442E00626567696E282920E3
:101170006661696C65640000002100240027002A74
:10118000002D003000330001010000040107010AB6
:101190000101021020200808102040102040800289
:1011A00001020108040201010204081020408080AD
:1011B0004020100804020180040201804020100831
:1011C0000402010804020101020408102040800109
:1011D00002040810204080050505050705080808D9
:1011E00008020202020A0A080804040404010101B8
:1011F00001010101010303030303030303040707C0
:10120000070C0C0C0C0C0C0C0C020202020606065D
:1012100006060606060B0B0B0B0B0B0B0B53443A87
:1012200020766F6C53697A6542797465733D256CDD
:10123000754D420A0053443A20766F6C436C7573C7
:10124000746572436F756E743D256C750A00534466
:101250003A20766F6C4279746573506572436C7591
:10126000737465723D256C750A0053443A20766F9D
:101270006C547970653D46415425640A0053443AE4
:10128000206361726453697A653D256C754D420A2D
:101290000053443A2063617264547970653D53444D
:1012A00025640A0053443A206C696256657273697A
:1012B0006F6E3D25642E25642E25640A002E2E2E89
:1012C0002073657475702066696C652070726F6339
:1012D000657373696E6720636F6D706C65746521EB
:1012E0000A0A0050726F63657373696E67207365D5
:1012F0007475702066696C652027257327202E2E53
:101300002E0A00496E697469616C697A6174696F4B
:101310006E20636F6D706C6574652E0A004E6F20D1
:1013200076616C6964204D6963726F534420636118
:1013300072642064657465637465642E0A00566186
:101340006C6964204D6963726F53442063617264F9
:101350002064657465637465642E0A000A5258300F
:101360003220456D756C61746F7220257320284999
:1013700044452025752E25752E25752F676363201E
:10138000257329202D202573202D2025730A005335
:101390000A00542025640A004D2025640A004420D8
:1013A00025640A0025632025640A0025642025732E
:1013B0000A0047656E65726174696E6720736574B3
:1013C00075702066696C6520272573270A00905484
:1013D000655C11241FBECFEFD1E2DEBFCDBF00E0C0
:1013E0000CBF13E0A0E0B2E0E8EEFBEC00E00BBFC6
:1013F00002C007900D92AE37B107D9F72CE0AEE7E7
:10140000B3E001C01D92A83AB207E1F719E0C8EEB7
:10141000D9E000E006C021970109802FFE010E945B
:101420000E61C73ED10780E00807A9F70E94EF547C
:101430000C94E2650C940000653048F470E0660F8F
:10144000771F680F791FFB018181928108956B30AE
:1014500050F46550770B660F771F680F791FFB01FB
:101460008685978508956D3051F06B50770B660F28
:10147000771F680F791FFB01848D958D089590E08B
:1014800080E00895FA011082E091E203F091E30315
:101490001994AF92BF92CF92DF92EF92FF920F9387
:1014A0001F93CF93DF936C017B018B01040F151FFA
:1014B000EB015E01AE18BF08C017D10759F0699162
:1014C000D601ED91FC910190F081E02DC6011995B6
:1014D000892B79F7C501DF91CF911F910F91FF9073
:1014E000EF90DF90CF90BF90AF900895FC01538DA7
:1014F000448D252F30E0842F90E0821B930B5417EE
:1015000018F081509F4F089501970895FC01918D27
:10151000828D981759F0A28DAE0FBF2FB11D5D9629
:101520008C91928D9F5F928F90E008958FEF9FEF47
:101530000895FC01918D828D981731F0828DE80F0E
:10154000F11D858D90E008958FEF9FEF0895FC01C8
:10155000918D828D981B892F90E0089581ED97E001
:101560000E94A70A21E0892B09F420E0822F089528
:10157000FC01A48DA80FB92FB11DA35EBE4F9C9195
:10158000848D8F5F848FA689B7899C93A089B18948
:101590008C91837080648C93938D848D981306C096
:1015A0000288F389E02D80818F7D808308950F93D9
:1015B0001F93CF93DF93EC0181E0888F9B8D8C8DFF
:1015C000981318C0E889F989808185FF13C09FB7F7
:1015D000F894EE89FF896083E889F98980818370B6
:1015E000806480839FBF81E090E0DF91CF911F9165
:1015F0000F910895062F1B8D1F5F8C8D81130CC0DA
:101600000FB607FCFACFE889F989808185FFF5CF0D
:10161000CE010E94B80AF1CFEB8DEC0FFD2FF11D2A
:10162000E35EFE4F00839FB7F8941B8FEA89FB8926
:1016300080818062D6CFCF93DF93EC01888D8823A1
:10164000B9F0AA89BB89E889F9898C9185FD03C025
:10165000808186FD0DC00FB607FCF7CF8C9185FF0A
:10166000F2CF808185FFEDCFCE010E94B80AE9CF8D
:10167000DF91CF91089580E090E0892B29F00E94BE
:10168000AE0A81110E94000080E090E0892B49F0B1
:1016900080E090E0892B29F00E94000081110E94D7
:1016A000000080E090E0892B49F080E090E0892BF9
:1016B00029F00E94000081110E94000080E090E06B
:1016C000892B49F080E090E0892B29F00E940000EE
:1016D00081110C94000008958150823108F05AC0A5
:1016E000E82FF0E08827E858F44F8F4F0C940E61F4
:1016F000980B9C0B8A0B900B940BCA0B9F0BA50BA2
:10170000A90BAF0BB30BB70BBD0BC10BCA0BC50BB2
:10171000CB0BCF0B809180008F7780938000089552
:10172000809180008F7DF9CF80918000877FF5CFF9
:1017300084B58F7784BD089584B58F7DFBCF80916C
:10174000B0008F778093B00008958091B0008F7DB6
:10175000F9CF809190008F778093900008958091C9
:1017600090008F7DF9CF80919000877FF5CF809199
:10177000A0008F778093A00008958091A0008F7DB6
:10178000F9CF8091A000877FF5CF809120018F77DE
:10179000809320010895809120018F7DF9CF809161
:1017A0002001877FF5CF1F93CF93DF93282F30E061
:1017B000F901E854FF4E8491F901EF56FE4ED491A1
:1017C000F901E952FE4EC491CC23A9F0162F8111E4
:1017D0000E946C0BEC2FF0E0EE0FFF1FEC57FF4E5A
:1017E000A591B4918FB7F894EC91111108C0D095E0
:1017F000DE23DC938FBFDF91CF911F910895DE2B05
:10180000F8CFCF93DF9390E0FC01EF56FE4E24918A
:1018100089529E4EFC0184918823D1F090E0880F7C
:10182000991FFC01E958FE4EA591B491FC01EC57BB
:10183000FF4EC591D49161110EC09FB7F8948C9161
:10184000E22FE0958E238C932881E223E8839FBFCB
:10185000DF91CF9108958FB7F894EC91E22BEC9340
:101860008FBFF6CF3FB7F8948091DE039091DF03EE
:10187000A091E003B091E10326B5A89B05C02F3FDE
:1018800019F00196A11DB11D3FBFBA2FA92F982FA6
:101890008827BC01CD01620F711D811D911D42E0A1
:1018A000660F771F881F991F4A95D1F708958F9269
:1018B0009F92AF92BF92CF92DF92EF92FF926B0115
:1018C0007C010E94320C4B015C01C114D104E10483
:1018D000F104B9F00E94320C681979098A099B0950
:1018E000683E73408105910580F321E0C21AD1085A
:1018F000E108F10888EE880E83E0981EA11CB11C57
:10190000E4CFFF90EF90DF90CF90BF90AF909F908B
:101910008F9008952FB7F8946091DA037091DB03EC
:101920008091DC039091DD032FBF089508956093AB
:10193000CE037093CF038093D0039093D103645D63
:101940007E4F8F4F9F4F6093CA037093CB0380935A
:10195000CC039093CD0382E090E09093C9038093F1
:10196000C8030E948A0C6093C4037093C5038093DC
:10197000C6039093C7030895CF92DF92EF92FF9230
:101980000F931F930E948A0C8B019C01C090C4038B
:10199000D090C503E090C603F090C7036091CE03DA
:1019A0007091CF038091D0039091D1030C191D0940
:1019B0002E093F09083E134021053105E0F0DC0106
:1019C000CB010196A11DB11D8093CE039093CF034F
:1019D000A093D003B093D103B701A60148515C4F47
:1019E0006F4F7F4F4093C4035093C5036093C6036A
:1019F0007093C703C7CF1F910F91FF90EF90DF90B7
:101A0000CF9008954F925F926F927F928F929F92A4
:101A1000AF92BF92CF92DF92EF92FF920F931F93FC
:101A2000CF93DF934B015C018091C0039091C10380
:101A3000A091C203B091C30388159905AA05BB05FF
:101A400009F4C6C08CE3C82ED12CE12CF12CC501C1
:101A5000A70196010E94EC606093D203CA01B9010C
:101A6000A70196010E94EC606093D303C501B40105
:101A700020E13EE040E050E00E94EC60CA01B90184
:101A800028E130E040E050E00E94EC606093D40335
:101A9000C501B40120E831E541E050E00E94EC606E
:101AA00069017A01CA01B9016C5F7F4F8F4F9F4F67
:101AB00027E030E040E050E00E94EC606F5F609310
:101AC000D503412C512C320140E004E610E0C0E97E
:101AD000D1E0242F30E02E54384FF901E370FF2776
:101AE0003097F9F4C901B8010E94D860892B31F40C
:101AF000C901BE010E94D860892B99F48EE691E05D
:101B0000A0E0B0E0480E591E6A1E7B1ED301C20140
:101B1000AA27BB27C816D906EA06FB0638F04F5F8E
:101B2000D8CF8DE691E0A0E0B0E0ECCF4093D803B1
:101B3000C90164E670E00E94D860EC01C90160E967
:101B400071E00E94D860309721F42097D9F4009773
:101B5000C9F04DE651E060E070E0441A550A660AAB
:101B6000770AC418D508E608F708A8EEB2E020E026
:101B7000213069F43097E9F5209711F40097C9F501
:101B80004DE106C04EE651E060E070E0E6CF4C91DA
:101B900050E070E060E031E0320FC416D506E60692
:101BA000F70640F0C41AD50AE60AF70A1196232F61
:101BB0003C30F1F62F5F2093D703C394C092D60335
:101BC0008092C0039092C103A092C203B092C3035B
:101BD000DF91CF911F910F91FF90EF90DF90CF9009
:101BE000BF90AF909F908F907F906F905F904F903D
:101BF00008954CE1CDCF01976A307105E0F033E3F1
:101C0000639F6627030E611D202D739F7727600D4C
:101C1000711D1124260F671F711D270F611D711D76
:101C20007695679527953AE0239F212D1124205D15
:101C3000FC012083E0CF605DFC0160830895CF93B9
:101C4000DF93EB01442319F0FC014293CF01BE0165
:101C50000E94FB0D2A9720F4FC0180E38293CF01C0
:101C6000DF91CF910895AF92BF92CF92DF92EF9222
:101C7000FF920F931F93CF93DF93CDB7DEB760979B
:101C80000FB6F894DEBF0FBECDBF6C018B015A01B9
:101C9000CE0141967C01672B09F44EC0BA0125E0C4
:101CA000769567952A95E1F76F73772740E00E9454
:101CB0001F0E6B2D6695669566954AE370E00E944F
:101CC0001F0E20E2DC012E93CD01B8016F71772742
:101CD00040E00E941F0EB80135E0769567953A9571
:101CE000E1F76F7077274DE20E941F0EB801672F52
:101CF000772766956454784F4DE20E941F0EA70126
:101D0000481B590BD601ED91FC910280F381E02D27
:101D1000BC01C601199560960FB6F894DEBF0FBEE0
:101D2000CDBFDF91CF911F910F91FF90EF90DF908A
:101D3000CF90BF90AF900895FC0120E2CE010196B4
:101D400022938E179F07E1F7C7014097D8CFCF9313
:101D5000DF93FC01C081D1810E948A0CC61BD70B86
:101D60008D2F881F8827881FDF91CF9108958EBD02
:101D700000000DB407FEFDCF8EB50895FC019281E1
:101D800083819CBD8DBD81E0878360E085810E9459
:101D9000D30B8FEF0C94B70E8FEF0C94B70E0F93FD
:101DA0001F93CF93DF931F921F92CDB7DEB78C01A5
:101DB0000E948A0C600F711F7A8369830E94CC0E87
:101DC0008F3F71F0CE0101960E94A70E8823B1F3D8
:101DD00080E00F900F90DF91CF911F910F910895A8
:101DE00081E0F7CFCF93DF93FC012781222349F0D5
:101DF000EC0161E085810E94D30B8FEF0E94B70E4A
:101E00001F82DF91CF9108951F93CF93DF93EC0151
:101E100088E592E00E94CF0E182F882361F08DEFA5
:101E20000E94B70ECE010E94F20E1886812FDF911C
:101E3000CF911F9108958FE18E83CE010E94F20E03
:101E4000F5CF0F931F93CF93DF938C01862FEA0179
:101E50000E94B70EFE0181918EBDDE5FEC17FD077B
:101E600041F08191000000000DB407FEFDCF8EBD52
:101E7000F5CF0DB407FEFDCF8FEF0E94B70E8FEFA9
:101E80000E94B70E0E94CC0EF80181878F718530B9
:101E900059F081E28683C8010E94F20E80E0DF9152
:101EA000CF911F910F91089581E0F9CFCF92DF92EA
:101EB000EF92FF920F931F93CF93DF931F921F9286
:101EC000CDB7DEB78C017B016A010E948A0C645D8C
:101ED0007E4F7A8369830E94CC0EF80181878F3F01
:101EE000C1F4CE0101960E94A70E8823A1F38EE1D2
:101EF000F8018683C8010E94F20E80E00F900F90D7
:101F0000DF91CF911F910F91FF90EF90DF90CF90D5
:101F100008958E3F11F089E1EBCF8FEF8EBDF70171
:101F2000C6013FEF019749F0000000000DB407FE25
:101F3000FDCF2EB53EBD2193F5CFF1E0CF1AD108EC
:101F4000EC0CFD1C0DB407FEFDCF8EB5F7018083B0
:101F5000F80111860E94CC0E0E94CC0E81E0CECFFB
:101F6000DF92EF92FF920F931F93CF93DF93EC01D9
:101F7000162F022FF32EE42ED52E0E94DE12882378
:101F8000C1F18F81811103C0CE010E94BE0E1111DB
:101F900028C0812F80640E94B70E8D2D0E94B70E3D
:101FA0008E2D0E94B70E8F2D0E94B70E802F0E949B
:101FB000B70E87E8111101C085E90E94B70E0E9493
:101FC000CC0E1AE00E94CC0E898787FF02C0115008
:101FD000C9F7DF91CF911F910F91FF90EF90DF90A4
:101FE00008951C30B1F28CE291E00E94CF0E811175
:101FF000D0CF8FEFEECF8F929F92AF92BF92CF92C2
:10200000DF92EF92FF920F931F93CF93DF93EC0138
:102010004A015B0169018885823049F48B859C8582
:10202000AD85BE8588159905AA05BB0559F18A8538
:10203000A5019401833039F089E0220F331F441F3A
:10204000551F8A95D1F769E1CE010E94B00F882310
:1020500099F08EE08E83CE010E94F20E80E0DF9137
:10206000CF911F910F91FF90EF90DF90CF90BF9095
:10207000AF909F908F90089582E088878B869C8692
:10208000AD86BE86F12CE12CE016F106A9F088E5BC
:1020900092E00E94CF0E811102C085E2DBCFA60143
:1020A0006CEFCE010E94210F8823A9F28FEFE81A6E
:1020B000F80A8EEFD81AE8CF8B859C85AD85BE8552
:1020C0008E0D9F1DA11DB11D8B879C87AD87BE877F
:1020D0008F858111C4CFCE01DF91CF911F910F91D8
:1020E000FF90EF90DF90CF90BF90AF909F908F9038
:1020F0000C94040FEF92FF920F931F93CF93DF93F3
:10210000EC0179011F85112369F001E010E00E94C4
:10211000FB0F182F812FDF91CF911F910F91FF900F
:10212000EF9008958A85833039F089E0440F551F78
:10213000661F771F8A95D1F79A01AB0168E1CE013E
:102140000E94B00F882331F08DE08E83CE010E9473
:10215000F20EE0CFA7016EEFCE010E94210F88237F
:10216000A9F388E592E00E94CF0E082F84E20023B5
:1021700061F320E030E0A9016DE0CE010E94B00FD4
:10218000882311F08AE0E1CF0E94CC0E8111FACFB2
:10219000CE010E94F20E102FBDCFEF92FF921F933F
:1021A000CF93DF93FC01208111E020FF12C0EC01EE
:1021B0007C01FBE0EF0EF11C4B815C816D817E8127
:1021C000970189819A810E947A10182F811108C085
:1021D00010E0812FDF91CF911F91FF90EF90089534
:1021E000888181FD04C088818E7F8883F2CF4B81F6
:1021F0005C816D817E818F819885A985BA85480F24
:10220000591F6A1F7B1F970189819A810E947A104A
:102210008111E9CFDDCFCF93DF93EC01188620E069
:1022200030E0A9016CE00E94B00F882349F089E0FA
:102230008E83CE010E94F20E80E0DF91CF9108954F
:10224000CE010E94F20E81E0F8CF8F929F92AF9262
:10225000BF92CF92DF92EF92FF920F931F93CF9393
:10226000DF93EC014A015B0169018885813049F403
:102270008B859C85AD85BE8588159905AA05BB050E
:1022800059F18A85A5019401833039F089E0220F44
:10229000331F441F551F8A95D1F762E1CE010E947A
:1022A000B00F882399F08CE08E83CE010E94F20E4D
:1022B00080E0DF91CF911F910F91FF90EF90DF9021
:1022C000CF90BF90AF909F908F90089581E08887C6
:1022D0008B869C86AD86BE86F12CE12CE016F1063D
:1022E00071F040E052E0B601CE010E94560F882303
:1022F00001F38FEFE81AF80A8EEFD81AEFCF8B852B
:102300009C85AD85BE858E0D9F1DA11DB11D8B8742
:102310009C87AD87BE878F858111CBCFCE01DF91A2
:10232000CF911F910F91FF90EF90DF90CF90BF90D2
:10233000AF909F908F900C940B118F929F92AF92C1
:10234000BF92FF920F931F93CF93DF93DC011196FF
:10235000ED91FC91EF2B61F490E080E0DF91CF9163
:102360001F910F91FF90BF90AF909F908F90089515
:10237000F22E4A015B01EC018B819C81AD81BE8113
:1023800088159905AA05BB0561F0CE010E94CD1004
:10239000882311F3F2FE0DC018828B829C82AD82DD
:1023A000BE822F2D2370F880F22AF882CE010B9680
:1023B000D5CF01E010E09E01255F3F4FB501A4019C
:1023C00089819A810E9425118111E6CFC5CF2F9274
:1023D0003F924F925F926F927F928F929F92AF92B5
:1023E000BF92CF92DF92EF92FF921F93CF93DF9332
:1023F00000D000D000D01F92CDB7DEB79A87898772
:1024000049835A836B837C836A017B0122E0C21A71
:10241000D108E108F108452B462B472B41F4E9850B
:10242000FA85E55FFD4FC080D180E280F380898529
:102430009A85855E9D4F98878F83FC01808191816D
:10244000A281B381C816D906EA06FB0618F0C12C92
:10245000D12C7601D701C60143E0B695A795979593
:1024600087954A95D1F71C01F1E03F2211E0C601A2
:102470008770992701C0110F8A95EAF72601370165
:102480004601570129853A85295E3D4F3E832D83BC
:10249000ED81FE8180819181A281B381B501A4018A
:1024A0003CE076956795579547953A95D1F7480F53
:1024B000591F6A1F7B1F20E089859A850E949D1104
:1024C000009709F472C0FC01E20DF31D2081FFEFBB
:1024D0008F1A9F0AAF0ABF0A322F3123D1F5B501F7
:1024E000A401441955096609770941305105610570
:1024F000710589F589819A81AB81BC81892B8A2BF1
:102500008B2B49F4A985BA85A55FBD4FFD0140829B
:10251000518262827382C301B2016E5F7F4F8F4F1F
:102520009F4F2A960FB6F894DEBF0FBECDBFDF9146
:10253000CF911F91FF90EF90DF90CF90BF90AF9021
:102540009F908F907F906F905F904F903F902F90D3
:10255000089524013501C814D904EA04FB0449F1A3
:10256000AF81B8854D915D916D917C9184169506F2
:10257000A606B70680F4110F09F0A9CF91012F5FCD
:102580003F4F312C212C11E02115B2E03B0708F020
:102590007FCF190198CF212C22E0322E412C512CD3
:1025A0003201812C912C5401E9CF60E070E0CB0125
:1025B000B8CF61E070E080E090E0B3CFFC0120850F
:1025C000223011F40C94040F213011F40C940B11EF
:1025D00081E008958F929F92AF92BF92CF92DF9247
:1025E000EF92FF920F931F934230510561057105E1
:1025F00060F480E01F910F91FF90EF90DF90CF90FB
:10260000BF90AF909F908F900895FC01C08CD18CAB
:10261000E28CF38CC416D506E606F70650F34801A3
:1026200059016A018581803229F584899589A689B5
:10263000B78917E076956795579547951A95D1F71D
:10264000480F591F6A1F7B1F23E0CF0180960E940D
:102650009D11009771F2CC0CDD1CCC0CDD1CF1E05F
:10266000DF228C0D9D1DFC0180829182A282B382AB
:1026700081E0C0CF803109F0BCCF4489558966899B
:1026800077894D0D511D611D711D23E0CF0180968D
:102690000E949D11009709F4ACCFCC0CDD1CF1E039
:1026A000DF22C80ED91EF60111830083E1CFCF923D
:1026B000DF92EF92FF920F931F93CF93DF934230FD
:1026C00051056105710550F48FEFDF91CF911F9196
:1026D0000F91FF90EF90DF90CF900895FC01C08C98
:1026E000D18CE28CF38CC416D506E606F70660F3AF
:1026F00089016A01EC018581803299F58489958987
:10270000A689B789E7E07695679557954795EA9545
:10271000D1F7480F591F6A1F7B1F22E0CE01809618
:102720000E949D11009781F2CC0CDD1CCC0CDD1CAD
:10273000F1E0DF228C0D9D1DFC0180819181A28141
:10274000B381488D598D6A8D7B8D481759076A076B
:102750007B0730F1F80180839183A283B38381E00A
:10276000B4CF803109F0B0CF448955896689778923
:102770004D0D511D611D711D22E0CF0180960E94FB
:102780009D11009709F4A0CFCC0CDD1CF1E0DF22F5
:10279000C80ED91EF60180819181B0E0A0E0D1CFB2
:1027A00080E093CF9F92AF92BF92CF92DF92EF9251
:1027B000FF920F931F93CF93DF9300D01F92CDB75B
:1027C000DEB75C016A017B019E012F5F3F4FB701BD
:1027D000A601C5010E945713982E87FD34C000E062
:1027E00010E09801B701A601C5010E94EA128823F2
:1027F00051F1F5014085518562857385C416D50672
:10280000E606F70650F4F1E0CF1AD108E108F10826
:10281000F501C086D186E286F386C980DA80EB8036
:10282000FC809110D1CF0F900F900F900F90DF91FF
:10283000CF911F910F91FF90EF90DF90CF90BF90BD
:10284000AF909F90089580E0EECFFC019C01255F42
:102850003F4F80E080FB879587F99191890FE217C0
:10286000F307C1F708954F925F926F927F928F9214
:102870009F92AF92BF92CF92DF92EF92FF920F930F
:102880001F93CF93DF93EC014A015B014C845D847D
:102890006E847F842881222309F45CC04889598989
:1028A0006A897B89481559056A057B0581F0811481
:1028B0009104A104B10469F41C861D861E861F863E
:1028C000888A998AAA8ABB8A8A818F7D8A8381E0D5
:1028D00046C023FF2CC0888D998DAA8DBB8D88158D
:1028E0009905AA05BB05B0F1EE81FF813481375F00
:1028F0007501640181E0C81AD108E108F108032ECE
:1029000004C0F694E794D794C7940A94D2F78A81C6
:1029100086FF36C08C8D9D8DAE8DBF8D8C0D9D1D1F
:10292000AE1DBF1D8C879D87AE87BF87C9CF26FF91
:10293000DBCFEE81FF818681978125E0880F991F8B
:102940002A95E1F7B0E0A0E088159905AA05BB0536
:1029500008F0B6CF4C865D866E867F8680E0DF917C
:10296000CF911F910F91FF90EF90DF90CF90BF908C
:10297000AF909F908F907F906F905F904F90089551
:10298000DB01CA010197A109B10904C0B695A79559
:10299000979587953A95D2F7C816D906EA06FB06A9
:1029A00020F0452B462B472B49F527FF22C0848D6D
:1029B000958DA68DB78D8C879D87AE87BF878E013D
:1029C000045F1F4FC114D104E104F10409F478CF6E
:1029D0004C855D856E857F8598018E819F810E94E3
:1029E000571391E0C91AD108E108F108181654F3F9
:1029F000B1CF8C8D9D8DAE8DBF8DDDCFC81AD90A1C
:102A0000EA0AFB0ADCCFCF93DF93EC01262F4C8937
:102A10005D896E897F898E819F8180960E949D113C
:102A2000009759F02C813D812F70332745E0220F0C
:102A3000331F4A95E1F7820F931FDF91CF910895DD
:102A40003F924F925F926F927F928F929F92AF923E
:102A5000BF92CF92DF92EF92FF920F931F93CF938B
:102A6000DF9300D01F92CDB7DEB75C01FC01448438
:102A700055846684778486809780F401C084D184ED
:102A8000E284F384C414D504E604F704C0F47301AB
:102A9000620110E0FFEFCF1ADF0AEF0AFF0AF4012C
:102AA000808D918DA28DB38D8C159D05AE05BF05D2
:102AB00040F4111132C0C084D184E284F38411E067
:102AC000E9CF4C145D046E047F0439F19E012F5F41
:102AD0003F4FB701A601C4010E94571387FD1DC0D7
:102AE0008823C1F289819A81AB81BC81892B8A2B91
:102AF0008B2B81F6112329F0F401C086D186E28662
:102B0000F3860FEF1FEF2FEF3FE0B701A601C401DF
:102B10000E94EA12382E811118C0312C832D0F909B
:102B20000F900F900F90DF91CF911F910F91FF9019
:102B3000EF90DF90CF90BF90AF909F908F907F905D
:102B40006F905F904F903F9008954114510461043D
:102B50007104B9F4F501C486D586E686F7868281CC
:102B60004114510461047104B1F0FFEF4F1A5F0A80
:102B70006F0A7F0A4C145D046E047F0479F08F7B2A
:102B80000BC097018601B301A201C4010E94EA12A1
:102B90008111E0CFC2CF8064F5018283F50182818B
:102BA00080688283BBCFCF93DF93EC0180960E9435
:102BB000CD10882331F088819981DF91CF910C94D9
:102BC000DE1280E0DF91CF910895EF92FF920F9394
:102BD0001F93CF93DF9300D01F921F92CDB7DEB724
:102BE000FC012081222309F463C08C01828187FFCC
:102BF00056C061E0CF010E9403157C01009789F463
:102C0000F80181818160818380E00F900F900F90A7
:102C10000F900F90DF91CF911F910F91FF90EF9048
:102C20000895FC018081853E59F3F8018081877306
:102C3000F7018387F801808183FF09C0808D918D22
:102C4000A28DB38DF701848F958FA68FB78FF80172
:102C5000848D958DA68DB78DF701938F828FB58B5F
:102C6000A48BE091E403F091E5033097A1F0AE016D
:102C70004B5F5F4FBE016F5F7F4FCE01039619958B
:102C80008B819C81F701918F808F938B828B8981BF
:102C90009A81978B868BF80182818F778283F801E6
:102CA000868197810E94D315882309F4A9CFADCFDF
:102CB00081E0ABCF8F929F92AF92BF92CF92DF9283
:102CC000EF92FF920F931F934230510561057105FA
:102CD00060F480E01F910F91FF90EF90DF90CF9014
:102CE000BF90AF909F908F900895FC01E55EFD4FDF
:102CF000C080D180E280F380EFEFCE1ADE0AEE0AC8
:102D0000FE0AC416D506E606F70618F3480159016F
:102D10006A01FC01E15FFD4F37E0769567955795B5
:102D200047953A95D1F70081118122813381400F77
:102D3000511F621F731F21E00E949D11009749F2ED
:102D4000CC0CDD1CCC0CDD1CF1E0DF22C80ED91E42
:102D5000F60180829182A282B38281E0BBCFCF92C2
:102D6000DF92EF92FF920F931F93CF93DF93E901CE
:102D7000FC01E55EFD4F00811181228133810F5FEF
:102D80001F4F2F4F3F4F041715072607370750F4E3
:102D90008FEFDF91CF911F910F91FF90EF90DF9018
:102DA000CF9008956A01FC01E15FFD4F37E0769511
:102DB0006795579547953A95D1F700811181228102
:102DC0003381400F511F621F731F20E00E949D112D
:102DD0000097F1F2CC0CDD1CCC0CDD1C21E0D222E2
:102DE000C80ED91EF60180819181A281B3818F3FE7
:102DF000FFEF9F07AF07BF0731F088839983AA834E
:102E0000BB8381E0C6CF80E0C4CF0F931F93CF93E5
:102E1000DF93EB01E42FDC01AD5DBD4F4D915D9182
:102E20006D917C9113970C811D812E813F814023F0
:102E300051236223732329E076956795579547952B
:102E40002A95D1F7088119812A813B810250110905
:102E5000210931091B96FC9104C0000F111F221F8C
:102E6000331FFA95D2F7400F511F621F731F5797F8
:102E70000D911D912D913C91400F511F621F731FA9
:102E80002E2F0E949D11009729F02C813D813170D9
:102E9000820F931FDF91CF911F910F9108954F9251
:102EA0005F926F927F928F929F92AF92BF92CF92DA
:102EB000DF92EF920F931F93CF93DF936C01480142
:102EC0005901DB01CA010297A109B109AC01BD0199
:102ED000480D591D6A1D7B1DF601E55EFD4F008101
:102EE000118122813381041715072607370708F45B
:102EF0007FC070974080518062807380EE2009F41B
:102F00006CC0481659066A067B0688F044165506BA
:102F10006606770660F4401751076207730718F0DA
:102F200040E050E0BA0140835183628373839C0187
:102F30002770332711E001C0110F2A95EAF72C0101
:102F40003D012CE076946794579447942A95D1F7E5
:102F5000F601E95EFD4F4081518162817381440D2C
:102F6000551D661D771D33E0B695A79597958795F6
:102F70003A95D1F7EC01D1702A013B012FEF421AAB
:102F8000520A620A720A21E0C6010E949D1100974E
:102F900079F1FC01EC0FFD1FA12F2081422F4A2364
:102FA00031E009F430E03E1519F12A272083B1E021
:102FB0008B1A9108A108B10861F1AA0F71F7319637
:102FC000B301A201D0E0C0E011E0A1E09F01281B05
:102FD000390B2115324009F7CFCF84159505A60589
:102FE000B70508F0A4CF80839183A283B3839FCFDA
:102FF00080E0DF91CF911F910F91EF90DF90CF9004
:10300000BF90AF909F908F907F906F905F904F9008
:10301000089581E0EECF4F925F926F927F928F92F0
:103020009F92AF92BF92CF92DF92EF92FF920F9357
:103030001F93CF93DF9300D01F92CDB7DEB74C0123
:103040006A017B012A013B019E012F5F3F4FB701BF
:10305000A601C4010E94AF16A82E87FD49C000E05A
:1030600010E09801B701A601C4010E945A16B82EBB
:103070008823F1F18FEFC81AD80AE80AF80AAA20C3
:1030800049F089819A81AB81BC818C159D05AE0583
:10309000BF0591F097018601041915092609370922
:1030A000E12CB301A201C4010E944F17882301F152
:1030B00049805A806B807C80C980DA80EB80FC80FC
:1030C000A110C2CF8B2D0F900F900F900F90DF911A
:1030D000CF911F910F91FF90EF90DF90CF90BF9015
:1030E000AF909F908F907F906F905F904F900895DA
:1030F000B12CE8CF4F925F926F927F928F929F9206
:10310000AF92BF92EF92FF920F931F93CF93DF93F3
:10311000EC0188A199A1488D598D6A8D7B8D41154F
:10312000510561057105F9F04F5F5F4F6F4F7F4F9C
:103130000E94E7114B015C0122E082169104A10478
:10314000B104A8F4F12C8F2DDF91CF911F910F9135
:10315000FF90EF90BF90AF909F908F907F906F9077
:103160005F904F90089540E050E0BA01E1CFEE2427
:10317000E39401E010E020E030E0BC01A40188A16C
:1031800099A10E944F17F82E8823E1F2488D598D9E
:103190006A8D7B8D8EA5411551056105710539F448
:1031A00080648EA7888E998EAA8EBB8ECCCF86FF28
:1031B0002AC04F5F5F4F6F4F7F4F481559056A0513
:1031C0007B0581F38F7B8EA74C8D5D8D6E8D7F8D02
:1031D00088A199A1488C598C6A8C7B8C4415550523
:1031E0006605770580F42A013B012FEF421A520A47
:1031F000620A720A930182010E945A16B301A20167
:103200008111E6CF9FCF0FEF1FEF9801B501A40109
:1032100088A199A10E945A16882309F493CF488D5A
:10322000598D6A8D7B8D411551056105710509F434
:10323000B9CF9501840188A199A10E945A168111E4
:10324000B1CF80CFCF93DF93EC010E94CD108823C4
:1032500041F0C55DDD4F88819981DF91CF910C945C
:10326000DE1280E0DF91CF9108952F923F924F922E
:103270005F926F927F928F929F92AF92BF92CF9206
:10328000DF92EF92FF920F931F93CF93DF93CDB70F
:10329000DEB762970FB6F894DEBF0FBECDBF988B36
:1032A0008F874801222E3D834E83352E2B01DC0172
:1032B00058962D913D914D915C915B972B873C8762
:1032C0004D875E879C96BC91BF83BB2309F4E3C006
:1032D000FC01F081F887DC011196BC91B987FC01F3
:1032E000F281FA87DC0113966C90139714967C9008
:1032F00014971596BC91FC01F681F98BFC01F781BE
:10330000FA8B288539854A85562D672D7B2F89892B
:103310009F2F5801C22CDD80EE80F32C82010E9489
:10332000D961F1F09401422D5D2D6E2D732DC201F6
:10333000A0E00E94E261B1F4AF85B88958961D9271
:103340001D921D921C925B97EF85F8898082918275
:1033500022822D8123833E813483358246825782A7
:1033600081E0A4C0EF81E3FF10C0EF85F8892089D8
:103370003189428953896489758986899789DD8075
:10338000EE800E94D96108F486C0EF85F889A0A07C
:10339000B1A0C501825D9D4FFC011081175F9401B2
:1033A000422D5D816E81732DC201AFEF0E94C46119
:1033B000012F0E94A061942F852FA901692F782FDA
:1033C00069017B01EF85F88986A586FF0DC0848D94
:1033D000958DA68DB78D840F951FA61FB71F808F63
:1033E000918FA28FB38FB0CF288539854A85562D0E
:1033F000672D7B2F89899A89AFEF0E94C4610E9453
:10340000A06129833A834B835C8329813A814B8174
:103410005C81C216D306E406F50668F02885398576
:103420004A85562D672D7B2F89899A89A0E00E94B5
:10343000E26109F05BC0BF81B6FF51C0F501E15EFA
:10344000FD4F80819181A281B381EF85F889808FC2
:10345000918FA28FB38F6F84788838E1630E711CCF
:10346000C114D104E104F10409F46ECFAF85B88929
:1034700058964D915D916D917C915B9793019096DB
:103480008D919C910E94AF16B1E0CB1AD108E10852
:10349000F10818162CF38B859C85AD85BE85EF85CC
:1034A000F889808F918FA28FB38F80E062960FB6DC
:1034B000F894DEBF0FBECDBFDF91CF911F910F916A
:1034C000FF90EF90DF90CF90BF90AF909F908F9044
:1034D0007F906F905F904F903F902F900895EF8571
:1034E000F889848D958DA68DB78DAFCF29813A81CE
:1034F0004B815C81C21AD30AE40AF50AACCF0F9360
:103500001F93F42FE52FA091A00CB091A10C109760
:1035100041F0A9016F2F7E2FCD011F910F910C94C7
:103520003314A091A20CB091A30C109759F0AB01E9
:1035300089012F2F3E2FBC01CD010E9435191F910B
:103540000F91089580E0FBCF9F92AF92BF92CF92F0
:10355000DF92EF92FF920F931F93CF93DF9300D0F0
:1035600000D000D0CDB7DEB78C01942E89E0F801F1
:10357000B296DE01119601900D928A95E1F7F8015D
:10358000A0A0B1A0F0E26F9FC0011124B0E0A0E0C4
:103590004D815E816F817885F501ED5DFD4FC080C5
:1035A000D180E280F380C422D522E622F722C80E21
:1035B000D91EEA1EFB1E840F951FA61FB71F8D8301
:1035C0009E83AF83B8873B968081875F04C0F69463
:1035D000E794D794C7948A95D2F7C114D104E10433
:1035E000F10489F149815A816B817C818985882325
:1035F00071F04F5F5F4F6F4F7F4F49835A836B83EB
:103600007C8321E0C21AD108E108F108E6CF9E01CF
:103610002F5F3F4FC5010E94AF16813091F390E0BC
:1036200080E029960FB6F894DEBF0FBECDBFDF91C4
:10363000CF911F910F91FF90EF90DF90CF90BF90AF
:10364000AF909F900895492DBE016F5F7F4FF801A5
:1036500080A191A10E940517E4CFBF92CF92DF9283
:10366000EF92FF920F931F93CF93DF9300D01F929F
:103670001F92CDB7DEB7DC019C962C919C9721114F
:1036800010C081E00F900F900F900F900F90DF917E
:10369000CF911F910F91FF90EF90DF90CF90BF904F
:1036A00008958C01FC0186A587FFDDC08F7786A772
:1036B000B12CD12CC12CD8019B968C919B978B154A
:1036C00008F4B5C040E06B2DC8010E94A41A7C012B
:1036D000009709F4C2C0FC018081803C09F44FC00E
:1036E000813C79F1853809F0B8C0D8019C968C915D
:1036F000877390E095838483E091E403F091E50380
:103700003097C1F0AE014B5F5F4FBE016F5F7F4FDF
:10371000CE01039619958D81F701858B29813A8118
:10372000358724878B819C8197878687318B208B77
:10373000938B828BD8019096ED91FC918081816072
:103740008083F701408190E080E0C0FAD794C7946D
:10375000D7F8F701E80FF91F2081C20ED11C813084
:10376000910521F423E030E0453811F021E030E00C
:10377000820F931F8032910540F3B3949CCF8181D7
:10378000D8019E969C9196FF50C082608183D8019B
:1037900050967C91509751966C91519752965C91AE
:1037A000529753964C91539754963C9154975596F3
:1037B0002C91559756969C91569757968C91579762
:1037C000F7017087618752874387348725879687FB
:1037D00087875C968D919D910D90BC91A02D848BD7
:1037E000958BA68BB78BD80118967C911897199654
:1037F0006C9119971A965C911A971B964C911B978E
:103800001C963C911C971D962C911D971E969C9181
:103810001E971F968C911F97708F618F528F438FC9
:10382000348F258F968F878F86CF8D7FAFCF41E0E6
:10383000B8016E5D7F4F90968D919C910E94051707
:10384000009759F0FC01D382C282D80190968D91E5
:103850009C910E942219811114CFF80185A58160E5
:1038600085A780E00FCF90968D919C910E942219A0
:10387000811107CFF80195A5916095A703CF0F930C
:103880001F93CF93DF93EC0108A919A90115110526
:1038900079F0C8010E94E515F8011082128219AA78
:1038A00018AA1BAA1AAADF91CF911F910F91089510
:1038B0000AA91BA981E00115110589F3C8010E941D
:1038C0002D1BF80114A616A6EACF4F925F926F92B5
:1038D0007F928F929F92AF92BF92CF92DF92EF92A0
:1038E0000F931F93CF93DF93CDB7DEB72C970FB60F
:1038F000F894DEBF0FBECDBFDC019E962C9121FD5A
:1039000017C080E02C960FB6F894DEBF0FBECDBF77
:10391000DF91CF911F910F91EF90DF90CF90BF90EB
:10392000AF909F908F907F906F905F904F90089591
:10393000FC01848C958CA68CB78C81149104A10415
:10394000B10409F4C1C06C01408C518C628C738C41
:1039500026FF7CC020853185428553856485758529
:1039600086859785AFEF0E94C46100A0F1A1E02D8C
:10397000DF01A25DBD4F0C91075F0E94A0612D8306
:103980003E834F83588769877A878B879C870D8111
:103990001E812F8138850F5F1F4F2F4F3F4F4114DE
:1039A000510461047104D9F1D301C2010196A11D32
:1039B000B11D89839A83AB83BC83B1E08B1A9108D4
:1039C000A108B10884189508A608B708080D191DA4
:1039D0002A1D3B1D011511052105310561F5F60173
:1039E00070816181528143813481258196818781F3
:1039F00070876187528743873487258796878787B3
:103A0000708B618B528B438B348B258B968B878B82
:103A100086A5806886A7C6010E942D1B73CF898268
:103A20009A82AB82BC82D6015C961D921D921D9239
:103A30001C925F97CFCF49815A816B817C81E12CA9
:103A4000CF010E944F178111CACF5BCF411451049F
:103A50006104710481F119821A821B821C829E0109
:103A60002F5F3F4FB301A20180A191A10E94AF1629
:103A700087FD47CF882379F0F601408D518D628D07
:103A8000738D0FEF1FEF980180A191A10E945A162C
:103A9000882309F436CF49815A816B817C81411595
:103AA00051056105710509F49ACFF60180A191A134
:103AB0000E940B18C8CF89829A82AB82BC82148E76
:103AC000158E168E178EE7CF81E01CCF982F80328F
:103AD00090F0877F823279F09A3369F0892F8F7B5B
:103AE0008C3349F082EC890F823028F081E09C35DC
:103AF00019F080E0089581E00895AF92BF92CF92CF
:103B0000DF92EF92FF920F931F93CF93DF93EC011D
:103B10006A017B0159018B819C81AD81BE818C152D
:103B20009D05AE05BF0590F49501B701A6018981F9
:103B30009A810E942511DF91CF911F910F91FF90E3
:103B4000EF90DF90CF90BF90AF900895400F511F3E
:103B5000611D711D84179507A607B70728F7CE01C9
:103B60000E94CD108111E0CFE6CFAF92BF92CF92ED
:103B7000DF92EF92FF920F931F93CF93DF938C010D
:103B8000EB010E94BC0C6B017C010E94020DA09015
:103B9000D603C701B6010E94020DB090D703C7013A
:103BA000B6010E94020D2091D8032A50330B203811
:103BB000310508F04CC04CE04B1508F448C08FE1CB
:103BC0008A1508F444C0E0E2BE9EC00111248A298F
:103BD000322F2227330F822B932BF801918380837E
:103BE000C701B6010E94020D1091D203C701B601B0
:103BF0000E94020D0091D303C701B6010E94020D7D
:103C00008091D403883130F50C3320F51C3310F546
:103C100090E0982F8827990F990F990FF0E20F9F46
:103C200090011124822B932B212F30E0359527957D
:103C3000822B932B99838883DF91CF911F910F91D2
:103C4000FF90EF90DF90CF90BF90AF90089590E0FD
:103C500080E0C3CF90E080E0EDCFFC0184AD95AD76
:103C6000009711F00C94E51586AD97AD009711F013
:103C70000C942D1B0895EF92FF920F931F93CF93F7
:103C8000DF93EC018B01DB0112968D919C911397D0
:103C90009B838A8314968D919D910D90BC91A02D4C
:103CA0008C839D83AE83BF83FB0180859185A28534
:103CB000B38588879987AA87BB877E01FCE0EF0ED2
:103CC000F11CCB010C96E816F906C1F0C7010E9461
:103CD0003F1CD801DC968D919C91DD97892BB1F02A
:103CE0001C861D861E86FDAEECAEDC96ED91FC9129
:103CF00080E2D70101900D928A95E1F7CE01DF9124
:103D0000CF911F910F91FF90EF900895F80186AD2C
:103D100097AD892B99F318AE19AE1AAEFFAEEEAE81
:103D200006ACF7ADE02D8FE2E4CF2DE632E0FC01EA
:103D3000318320830C960C943F1CFC011382128269
:103D400088EE93E0A0E0B0E084839583A683B783F8
:103D500015AE14AE17AE16AE8DE692E09183808359
:103D60000895AF92BF92CF92DF92EF92FF920F939E
:103D70001F93DC01D096ED91FC91D197309731F1F2
:103D8000808140E050E0BA0183FF0CC0408D518D2E
:103D9000628D738D80899189A289B389481B590BE3
:103DA0006A0B7B0B4115B0E85B076105710520F0DC
:103DB0004FEF5FE760E070E0CA011F910F91FF9045
:103DC000EF90DF90CF90BF90AF900895D296ED9195
:103DD000FC9180E090E0309781F384A583FF23C0BD
:103DE00020893189428953896489758986899789AF
:103DF000A080B180C280D380E480F58006811781E5
:103E00000E94D061F22FE32F2F3F3F47410551051C
:103E1000610571058105910519F010F0FFEFEFE7DD
:103E20008F2F9E2FCACF20E030E040E050E060E0CE
:103E300070E080E090E0E6CF0C960C94B11E90E02C
:103E400080E0089581E080937E03089580910F04BF
:103E5000823058F42091FD033091FE032F7D3E7F88
:103E60003093FE032093FD0314C01092FE031092C2
:103E7000FD03883061F5909103042FE531E0929FB6
:103E8000F001939FF00D1124EA59FA4F908191119E
:103E900021C090910704911123C0909103049130A7
:103EA00049F42091FD033091FE0331603093FE030D
:103EB0002093FD03883009F044C08091FD03909168
:103EC000FE0384609093FE038093FD030895853084
:103ED00091F2DFCF2091FD033091FE032068C0CF27
:103EE000923041F7379B09C02091FD033091FE03CA
:103EF00028603093FE032093FD03823038F39091C5
:103F00000304913059F4309909C02091FD03309198
:103F1000FE0331603093FE032093FD032FE531E073
:103F2000929FF001939FF00D1124E859FA4F908170
:103F3000913009F0BFCF2091FD033091FE03206244
:103F4000B5CF863019F68091FD039091FE03806411
:103F5000B9CF2F923F924F925F927F928F929F9212
:103F6000AF92BF92CF92DF92EF92FF920F931F9387
:103F7000CF93DF93EC014B017A018A8180FFD5C09A
:103F8000888183FF16C0888D998DAA8DBB8D488945
:103F900059896A897B89841B950BA60BB70BA701EE
:103FA00070E060E0481759076A077B07A0F07C01C2
:103FB00012C086FF10C0EE81FF818681978155E097
:103FC000880F991F5A95E1F728893989821B930B2D
:103FD0008E159F0560F36701712C1E018CE0280E81
:103FE000311C412C42E0542EC114D10409F4F3C019
:103FF000488959896A897B89EE81FF818A0111701C
:104000002881DB01CA0139E0B695A7959795879578
:104010003A95D1F726FF30C0448D558D668D778D4A
:10402000480F591F6A1F7B1FEE81FF810115110583
:1040300009F081C0C11482E0D80608F47CC083A1D5
:1040400094A1A5A1B6A1481759076A077B0709F4EF
:1040500072C0C11484E0D80608F094C001E010E0FA
:10406000940181A192A10E942511882309F45DC0C9
:10407000A12C82E0B82E75C073807822011511053D
:1040800081F471100EC0452B462B472B81F527FF7D
:1040900029C0848D958DA68DB78D8C879D87AE8721
:1040A000BF87EE81FF814C855D856E857F8542509F
:1040B000510961097109848104C0440F551F661FAD
:1040C000771F8A95D2F780899189A289B389840F55
:1040D000951FA61FB71FAC01BD01470D511D611DE6
:1040E000711DA2CF8C8D9D8DAE8DBF8DD6CF4C8591
:1040F0005D856E857F8523FF0CC08A8186FF09C0A0
:104100004F5F5F4F6F4F7F4F4C875D876E877F8715
:10411000C8CF9101CF010E94571387FD06C08111BE
:10412000C0CF8881807D09F056C0898182608983F3
:104130008FEF9FEF53C0C201801B910B56018C156E
:104140009D0508F45C0120E0CF0180960E949D113E
:10415000009759F3BC01600F711FA501C4010E94B3
:104160001D628A0C9B1C88899989AA89BB898A0D42
:104170009B1DA11DB11D888B998BAA8BBB8BCA1867
:10418000DB0832CF8601012F1127069530E020E0B1
:10419000888186FD0EC082818719990B092E000C3B
:1041A000AA0BBB0B80179107A207B30710F48C0171
:1041B0009D01D901C80129E0880F991FAA1FBB1FC3
:1041C0002A95D1F75C019401CF0180960E947D1D54
:1041D0008111C7CFAACFC7018C199D09DF91CF915B
:1041E0001F910F91FF90EF90DF90CF90BF90AF9015
:1041F0009F908F907F905F904F903F902F90089569
:10420000EF92FF920F931F93CF93DF931F92CDB73F
:10421000DEB77C01962FF701408951896289738945
:104220008A019B0185E036952795179507958A9514
:10423000D1F70F7011F091112BC041E050E0BE0199
:104240006F5F7F4FC7010E94A91F813051F090E03E
:1042500080E00F90DF91CF911F910F91FF90EF9031
:104260000895F70180899189A289B3894F96A11D8C
:10427000B11D808B918BA28BB38BF70186819781C7
:104280008B96F0E20F9F90011124820F931FE1CFD4
:10429000405E5F4F6F4F7F4F408B518B628B738BB4
:1042A000ECCFCF93DF93EC01AB0170E060E085E0F1
:1042B000440F551F661F771F8A95D1F7CE010E94C4
:1042C0003314882331F060E0CE01DF91CF910C945C
:1042D000002190E080E0DF91CF9108952F923F92EE
:1042E0004F925F926F927F928F929F92AF92BF9206
:1042F000CF92DF92EF92FF920F931F93CF93DF93B2
:10430000CDB7DEB72E970FB6F894DEBF0FBECDBF88
:104310009E878D877A8769875C874B87DC019E96AD
:104320008C919E9780FF45C186FD04C09C968C9120
:1043300083FF4FC0ED85FE85F081F983AD85BE8595
:104340001196BC91BA83ED85FE85F281FB83AD8524
:10435000BE851396BC91BC83ED85FE85F481FD83FB
:10436000AD85BE851596BC91BE83ED85FE85F68133
:10437000FF83AD85BE851796BC91B887ED85FE8518
:104380002088318842885388648875888688978811
:104390002B853C8540E050E060E070E080E090E0FC
:1043A000A980BA80CB80DC80ED80FE800F811885EB
:1043B0000E94BB6151016201730184010E94D961B5
:1043C00041F038F0C101A981BA818A1B9B0B9C87FF
:1043D0008B878B849C842D843E84B8E12B0E311C0A
:1043E0008114910409F46FC1ED85FE85F081F98394
:1043F000AD85BE851196BC91BA83ED85FE85F281AF
:10440000FB83AD85BE851396BC91BC83ED85FE858F
:10441000F481FD83AD85BE851596BC91BE83ED8587
:10442000FE85F681FF83AD85BE851796BC91B88762
:10443000AD85BE859096ED91FC91DF01AD5DBD4FE0
:10444000CD90DD90ED90FC9089819A81AB81BC810B
:10445000C822D922EA22FB22260191E05922C11466
:10446000D104E104F104F9F429813A814B815C81A2
:104470006D817E818F819885A0E00E94E26109F0C4
:1044800072C0AD85BE859C968C9186FF65C0E15E4D
:10449000FD4F80819181A281B381ED85FE85808F62
:1044A000918FA28FB38FED85FE8580A191A1FC0134
:1044B000E25DFD4FA08149E0F694E794D794C7945C
:1044C0004A95D1F7ED85FE85408D518D628D738DB6
:1044D00042505109610971090A2E04C0440F551F49
:1044E000661F771F0A94D2F74C0D5D1D6E1D7F1D50
:1044F000FC01E95EFD4F0081118122813381400F73
:10450000511F621F731F4114510409F05AC08114D6
:10451000F2E09F0608F455C0FC0103811481258157
:104520003681401751076207730709F44AC08114A6
:10453000F4E09F0608F09AC001E010E029853A8572
:10454000DC0111968D919C910E942511882389F19F
:10455000612C82E0782E4BC0ED85FE85848D958D93
:10456000A68DB78D9ACFAD85BE8558964D915D913C
:104570006D917C915B979E968C919E9786FF0AC069
:104580004F5F5F4F6F4F7F4FFD01408F518F628FA5
:10459000738F89CF9101CF010E94AF1687FD09C0AB
:1045A000811181CFAD85BE859C968C91807509F077
:1045B0008AC0ED85FE8585A5826085A78FEF9FEF78
:1045C00086C020E032E02419350934012815390568
:1045D00008F4390120E00E949D11009751F3BC01BD
:1045E000640D751DA30189859A850E941D62E98568
:1045F000FA85E60DF71DFA87E987930140E050E060
:1046000060E070E080E090E0AD85BE85AC901196F2
:10461000BC9011971296CC9012971396DC9013973A
:104620001496EC9014971596FC90159716960C918D
:10463000169717961C9117970E94BB612C931196A1
:104640003C93119712964C93129713965C93139781
:1046500014966C93149715967C93159716968C93D5
:10466000169717969C9386189708BACE2401452C66
:1046700055244694712C612C01E010E020E030E0DC
:1046800004C0000F111F221F331FAA95D2F70C1967
:104690001D092E093F09401651066206730610F4E3
:1046A000930182016801790129E0CC0CDD1CEE1C2C
:1046B000FF1C2A95D1F7360129853A850E947D1D78
:1046C000811195CF76CF8B859C85881999092E9677
:1046D0000FB6F894DEBF0FBECDBFDF91CF911F9113
:1046E0000F91FF90EF90DF90CF90BF90AF909F9091
:1046F0008F907F906F905F904F903F902F90089594
:104700004F925F926F927F928F929F92AF92BF92E1
:10471000CF92DF92EF92FF920F931F93CF93DF938D
:104720001F92CDB7DEB7FC0104AD15AD0115110523
:1047300099F1F80180889188A288B388C484D584CF
:10474000E684F78441E050E0BE016F5F7F4FC8010F
:104750000E94A91F0197E9F4898190E0F801808AFD
:10476000918AA28AB38AC486D586E686F7860F9098
:10477000DF91CF911F910F91FF90EF90DF90CF903D
:10478000BF90AF909F908F907F906F905F904F9071
:1047900008958FEF9FEFE2CF06AD17AD8FEF9FEF3C
:1047A0000115110521F3F80140805180628073806A
:1047B00084809580A680B780C08CD18CE28CF38CED
:1047C00041E050E0BE016F5F7F4FC8010E946E2143
:1047D000019781F4898190E0F801408251826282E0
:1047E000738284829582A682B782C08ED18EE28E39
:1047F000F38EBDCF8FEF9FEFEFCFFC0180A991A982
:10480000009711F00C94A91F82A993A9009711F0A9
:104810000C946E218FEF9FEF0895CF93DF931F923B
:10482000CDB7DEB741E050E0BE016F5F7F4F0C9621
:104830000E94FD23019731F4898190E00F90DF9170
:10484000CF9108958FEF9FEFF9CF2F923F924F9224
:104850005F926F927F928F929F92AF92BF92CF9210
:10486000DF92EF92FF920F931F93CF93DF93CDB719
:10487000DEB762970FB6F894DEBF0FBECDBF7A8762
:1048800069875E874D87DC01D0960D90BC91A02D85
:10489000B88BAF87109709F492C112968C9181FF63
:1048A000BCC083FDADC0ED85FE85AF0170E060E06A
:1048B000EF85F88980899189A289B389809590953F
:1048C000A095B09584179507A607B70708F4A5C06B
:1048D000CD84DE8444244A94542C32013C96FC87D7
:1048E000EB87EF85F88980889188A288B388C11406
:1048F000D10409F42BC126803780D1011396FC9096
:10490000B501A40199E076956795579547959A95D5
:10491000D1F7F42284011170F11023C0448555852C
:10492000668577850115110509F0F5C34115510517
:104930006105710509F4ACC0228126FF79C0808D24
:10494000918DA28DB38D88169906AA06BB0608F034
:104950006FC04F5F5F4F6F4F7F4F448755876687AC
:104960007787AF85B8891696ED91FC9117971C96BD
:104970004D915D916D917C911F9742505109610954
:104980007109848104C0440F551F661F771F8A95E3
:10499000D2F780899189A289B389840F951FA61FB8
:1049A000B71FAC01BD014F0D511D611D711D0115DA
:1049B000110509F0C5C3C114B2E0DB0608F4C0C399
:1049C00083A094A0A5A0B6A021A032A0C11424E089
:1049D000D20608F081C0481559056A057B0529F4FF
:1049E00010A243A254A265A276A229853A85C101EC
:1049F0000E947A10882389F0E12C52E0F52EE4C35E
:104A0000AF85B88958964D915D916D917C915B977A
:104A1000CD010E943314811146CFAF85B88911961C
:104A20008C911197816011968C931E861D86A0C073
:104A30002B853C85C1010E94571387FDEECF811164
:104A400006C08F8598890E942015882331F3AF8591
:104A5000B8891696ED91FC9117971C964D915D9132
:104A60006D917C911F9742505109610971098481B0
:104A700004C0440F551F661F771F8A95D2F780899F
:104A80009189A289B389480F591F6A1F7B1F93CF51
:104A9000EF85F889848D958DA68DB78D0097A1053A
:104AA000B10589F4CF010E942015882309F4B5CF00
:104AB000EF85F88984859585A685B785848F958F40
:104AC000A68FB78F4ECFEF85F88984879587A68705
:104AD000B78747CF21E05BC38601012F11270695D9
:104AE00030E020E082818F19990B092E000CAA0B6F
:104AF000BB0B081719072A073B0710F4D901C80197
:104B00008C019D010F2EF9E0000F111F221F331F92
:104B1000FA95D1F7F02D78018C0184169506A6063A
:104B2000B70670F0840F951FA61FB71F8816990649
:104B3000AA06BB0628F410A243A254A265A276A23C
:104B400029853A85C1010E94FB0F3BC3EF85F88997
:104B5000808D918DA28DB38D88159905AA05BB0511
:104B600010F5808E918EA28EB38E828180688283B2
:104B70008D859E8562960FB6F894DEBF0FBECDBFC1
:104B8000DF91CF911F910F91FF90EF90DF90CF9029
:104B9000BF90AF909F908F907F906F905F904F905D
:104BA0003F902F9008958091E4039091E503892B25
:104BB000F9F2EF85F889828180688283D9CFFC0180
:104BC00002A8F3A9E02DFA8BE98B309709F42DCFD9
:104BD00086A581FF0CC183FDEBC02D853E853C87FA
:104BE0002B8749895A89485E5F4F588B4F87E989DF
:104BF000FA8920803180428053806480758086806D
:104C000097802B853C85232B09F438C200A0F1A1A5
:104C1000E02DDF01AD5DBD4FCD90DD90ED90FC90BE
:104C2000C220D320E420F520160131E03322C11444
:104C3000D104E104F10409F056C0A989BA89589653
:104C40008D909D90AD90BC905B9781149104A104D0
:104C5000B10409F4F3C09E968C919E9786FFDEC046
:104C60005C964D905D906D907C905F9718962C911E
:104C7000189719963C9119971A964C911A971B966A
:104C80005C911B971C966C911C971D967C911D97AF
:104C90001E968C911E971F969C91AFEF0E94C46147
:104CA000E25DFD4F0081075F0E94A06129833A8386
:104CB0004B835C836D837E838F83988729813A81C0
:104CC0004B815C81420E531E641E751E8414950434
:104CD000A604B70408F494C089899A890E947A18B6
:104CE000882309F484C0A989BA899096ED91FC9132
:104CF000DF01A25DBD4F2C9129834601570149E098
:104D0000B694A794979487944A95D1F7A989BA89BC
:104D100058964D905D906D907C905B97B2E04B1AE9
:104D200051086108710804C0440C551C661C771CAE
:104D30002A95D2F7480C591C6A1C7B1CDF01A95E1E
:104D4000BD4F8D919D910D90BC91A02D480E591E87
:104D50006A1E7B1E2114310409F091C02B853C850D
:104D6000211542E0340708F48AC0C380D480E5806E
:104D7000F680818192812115344008F036C14C14AF
:104D80005D046E047F0441F410824FEF5FEFBA01BF
:104D9000438354836583768329853A85B301A201D1
:104DA0000E947A10882319F1812C82E0982EC7C0C6
:104DB000A989BA8950960C91509751961C91519798
:104DC00052962C91529753963C91539754964C91EE
:104DD000549755965C91559756966C915697579661
:104DE0007C915797CD010E9435198111F6CEA98982
:104DF000BA899D968C919D9781609D968C9315CED6
:104E00003FEF831A930AA30AB30AA989BA8958966D
:104E10008D929D92AD92BC925B9765CF2F8538891C
:104E2000B501A401CF010E94AF16082E000C990B0A
:104E300097FDDDCF892B09F44FCF55CFE989FA894A
:104E4000848D958DA68DB78D0097A105B10581F450
:104E5000CF010E947A18882351F2E989FA89808D5E
:104E6000918DA28DB38D848F958FA68FB78F3BCFF9
:104E7000E989FA89808F918FA28FB38F34CF80E038
:104E800092E0821993098B849C848815990508F413
:104E90004C012114310409F0A6C0A989BA892C91CA
:104EA00011963C91119712964C91129713965C9122
:104EB000139714966C91149715967C9115975096AC
:104EC000AC9050975196BC9051975296CC90529777
:104ED0005396DC9053975496EC9054975596FC90CB
:104EE000559756960C91569757961C91579716962C
:104EF0008C91169717969C910E94D96108F473C003
:104F000025E0B301A201CF010E949D11009709F491
:104F10006ECFA40169857A85820D931D0E941D6262
:104F2000280C391C2114B2E03B0649F4E989FA89BE
:104F300080A191A10E94CD10882309F458CF94013B
:104F400040E050E060E070E080E090E0A989BA893C
:104F5000AC901196BC9011971296CC901297139624
:104F6000DC9013971496EC9014971596FC90159777
:104F700016960C91169717961C910E94BB612901F9
:104F80003A01382EE989FA8920835182428373825B
:104F9000648375838683978329853A85280D391D17
:104FA0003A8729874B855C85481959095C874B8767
:104FB000A088B188C288D388E488F58806891789D3
:104FC0009201A3010E94D96109F008F410CE86A5D0
:104FD000806886A7408A518A628A738A648B758B3F
:104FE000368A978B04CE21E08CCF0B851C85012F50
:104FF0001127069530E020E041E050E060E070E0ED
:10500000098004C0440F551F661F771F0A94D2F70A
:1050100049835A836B837C83481959096A097B0940
:10502000041715072607370710F4B901A8014A012C
:105030005B0129E0880C991CAA1CBB1C2A95D1F79E
:105040008A01C414D504E604F70488F0440D551D04
:10505000661D771DC416D506E606F70640F41082D5
:105060002FEF3FEFA901238334834583568329859E
:105070003A85B301A2010E94FB0F5ECFA989BA89CC
:1050800018962C91189719963C9119971A964C914D
:105090001A971B965C911B971C966C911C971D96FA
:1050A0007C911D971E968C911E971F969C911F9721
:1050B00051016201730184010E94D961F8F41896CC
:1050C0002C92189719963C9219971A964C921A9707
:1050D0001B965C921B971C966C921C971D967C925B
:1050E0001D971E968C921E971F969C921F979E96B8
:1050F0008C919E9780689E968C933ACD8091E40324
:105100009091E503892B09F433CDE989FA8986A5C5
:10511000806886A72DCDF1014250510961097109BE
:10512000848104C0440F551F661F771F8A95D2F7EC
:1051300080899189A289B389480F591F6A1F7B1FF3
:1051400080E092E0801B910B76018C159D0508F4A0
:105150007C010115110509F0BDCCAF85B8895096C9
:105160008D909D90AD90BC90539758968D919D9148
:105170000D90BC91A02D88169906AA06BB0630F4A6
:10518000AF85B88912968C9185FFA4CC25E0CF011C
:1051900080960E949D11009709F43FCCA701698574
:1051A0007A85800F911F0E941D620E0D1F1D011533
:1051B000124051F4EF85F8898681978180960E948C
:1051C000CD10882309F429CCEF85F889808991894D
:1051D000A289B3898E0D9F1DA11DB11D808B918B5E
:1051E000A28BB38B29853A852E0D3F1D3A872987DF
:1051F000CE18DF0876CB0C960C942524CF93DF9342
:105200001F92CDB7DEB7698341E050E0BE016F5F0A
:105210007F4F0C960E9425240F90DF91CF91089527
:10522000FC01808181110EC080E2DF011D928A9510
:10523000E9F777836683DB0115968C91803121F045
:10524000803239F080E0089580E4808381E08283B9
:10525000089580E8FACFCF92DF92EF92FF920F93FA
:10526000CF93DF93EC0180E2FE0111928A95E9F77A
:10527000FB01A681B781BF83AE835D834C83C48C61
:10528000D58CE68CF78CC886D986EA86FB86FD012C
:10529000BB964F70552765E0440F551F6A95E1F79F
:1052A000E40FF51F838583FD11C087738883938581
:1052B000987111F4886088830B83822F837081300A
:1052C00009F445C038F0823009F43FC018821A82D0
:1052D00080E033C081E08A838A8181FF06C08881B3
:1052E000982F917199F78062888393968D919D9103
:1052F0000D90BC91A02D8C8B9D8BAE8BBF8B848928
:105300009589B0E0A0E0DC0199278827428D538D74
:1053100070E060E0842B952BA62BB72B8C8F9D8F94
:10532000AE8FBF8F448D558D668D778D488F598F89
:105330006A8F7B8F22FD0DC081E0DF91CF910F91AD
:10534000FF90EF90DF90CF90089583E0C4CF82E08C
:10535000C2CFCE010E943314882309F4B7CFECCF1B
:105360002F923F924F925F926F927F928F929F9275
:10537000AF92BF92CF92DF92EF92FF920F931F9363
:10538000CF93DF93CDB7DEB7EA970FB6F894DEBFC1
:105390000FBECDBF2C014B011A01E22EDC019C9601
:1053A0008C9181110DC0FB0184A5807549F0822F7D
:1053B0008370813009F43BC140F0823009F434C17C
:1053C000F20114A616A6F12CD3C1F1E0FAA763E00E
:1053D000662E21143104B9F0D10116968D919C915D
:1053E0000E966FE070E00E94C46072E0672E660E59
:1053F00000E010E020E030E040E050E060E070E0ED
:10540000C4010E943519F12C712C6E01B1E2CB0E52
:10541000D11CBAA46894B6F85FE2A52E40E250E031
:10542000BE016F5F7F4FC4010E946E21009739F16A
:10543000809731F6898187FDFDC0711017C0F40196
:1054400040815181628173818A019B01005211095F
:10545000210931090FA718AB29AB3AAB208D318D4B
:10546000428D538D2BA73CA74DA75EA7761408F459
:1054700073948111B2C12114310409F4A1CFE4FE67
:105480009FCF8AA5827009F49BCF2114310409F4BF
:1054900097CF761408F09CC240E250E0BE016F5FE7
:1054A0007F4FC4010E946E21009709F073C2D4019E
:1054B00058960D911D912D913C915B970BAB1CABB8
:1054C0002DAB3EAB9C968C919C9786FFE4C1909649
:1054D0000D911C91F801E15EFD4F80819181A281C7
:1054E000B38189A39AA3ABA3BCA3C12CD12C760111
:1054F00049A15AA16BA17CA19E012F5D3F4FC8011C
:105500000E94AF1687FDC3C1BFEFCB1ADB0AEB0ABF
:10551000FB0A8111EDCFF801E25DFD4F8081875FCD
:1055200004C0CC0CDD1CEE1CFF1C8A95D2F7D40104
:105530009096ED91FC91E95DFD4F80819181A28172
:10554000B3818C0D9D1DAE1DBF1D0097A105B440FC
:1055500008F036CFC4010E947A18882309F430CFAE
:10556000D40190968D919C9191975896CD90DD9015
:10557000ED90FC905B97B2E0CB1AD108E108F108FE
:10558000FC01E25DFD4F208104C0CC0CDD1CEE1C53
:10559000FF1C2A95D2F7895E9D4FFC018081918185
:1055A000A281B38197018601080F191F2A1F3B1F93
:1055B0000FAB18AF29AF3AAFC12CD12C7601D40173
:1055C00090968D919C919197FC01E25DFD4F208119
:1055D00041E050E060E070E004C0440F551F661FDA
:1055E000771F2A95D2F7C416D506E606F70608F007
:1055F00058C125E04FA958AD69AD7AAD4C0D5D1D80
:105600006E1D7F1D0E949D11009709F4D9CEFC01EB
:1056100000E012E0119201501040E1F71FEFC11AB3
:10562000D10AE10AF10ACBCF03E00AA7D0CE12E0FB
:105630001AA7CDCEF11044C0761408F4712C853829
:1056400009F0ECCEF2010A2D11920A95E9F78A8150
:10565000D2019B968C939B979D81892F877394FF92
:105660002BC09C968C93D40190968D919C91919790
:10567000F20191A380A358968D919D910D90BC91BC
:10568000A02D82A393A3A4A3B5A3F401808191814B
:10569000A281B3818097A109B109F20186A397A3E2
:1056A000A0A7B1A7D4019E968C9186FB882780F98C
:1056B00082A7FF24F394B2CE8860F20184A7D3CFEF
:1056C000803C09F08CC00AA5F20106A78A8181FD01
:1056D000B6A68985D20150968C9350978A855196AB
:1056E0008C9351978B8552968C9352978C855396B9
:1056F0008C9353978D8554968C9354978E8555969D
:105700008C9355978F8556968C9356978889579684
:105710008C938D899E89AF89B88DF201848F958F86
:10572000A68FB78F898D80878A8D81878B8D8287A1
:105730008C8D83878D8D84878E8D85878F8D8687D1
:1057400088A187872114310469F58E2D847221F494
:10575000F20186A581FF06C0D2019C968C918171D1
:1057600009F02ECEE2FC71C0F20186A581FD8BC04E
:105770008F2DEA960FB6F894DEBF0FBECDBFDF9136
:10578000CF911F910F91FF90EF90DF90CF90BF903E
:10579000AF909F908F907F906F905F904F903F90D1
:1057A0002F900895D1018D919C91119713969C9300
:1057B0008E9312972C8116968D919C91179728178E
:1057C000190659F4FF24F39418962D913C918D817C
:1057D0009E812817390709F421CEF12C1FCE813C78
:1057E000E1F7F10124813581BE016D5F7F4FDB015F
:1057F0008D919D91BD01F101A281B381A217B307E3
:1058000059F4892B51F7D10112968D919C918217F1
:10581000930709F003CE99CFAD014F5F5F4F5383DC
:1058200042834C918F379105C0F65FE9540F5A318E
:1058300008F440525FE9580F5A3108F4805284133B
:10584000CCCF6C157D0599F6DECFD20150960C9128
:10585000509751961C91519752962C91529753966E
:105860003C91539754964C91549755965C9155970B
:1058700056966C91569757967C91C2010E943519A5
:10588000811172CF9DCD84A5806284A771CFC12C78
:10589000D12C760140CEF401C084D184E284F3841B
:1058A00046CE9C962C919C9726FD62C09E962C918C
:1058B0009E9720689E962C93FC01E95DFD4F8081A8
:1058C0009181A281B3819C01AD0160E070E080E034
:1058D00090E0D4011896AC9018971996BC9019973F
:1058E0001A96CC901A971B96DC901B971C96EC90FE
:1058F0001C971D96FC901D971E960C911E971F9647
:105900001C911F970E94BB6118962C9318971996AB
:105910003C9319971A964C931A971B965C931B9776
:105920001C966C931C971D967C931D971E968C93CA
:105930001E971F969C9380819181A281B3819C01C7
:10594000AD0160E070E080E090E0F401A088B188F3
:10595000C288D388E488F588068917890E94BB61CC
:10596000208B318B428B538B648B758B868B978B03
:10597000C4010E942D1B882309F422CD0BA91CA968
:105980002DA93EA9D40158960D931D932D933C93B8
:105990005B977FCD809709F013CD711017C0F4018C
:1059A00080819181A281B3818C019D0100521109F6
:1059B000210931090FA718AB29AB3AAB208D318DE6
:1059C000428D538D2BA73CA74DA75EA7739461CD45
:1059D000F40186A586FB882780F99FE2D2011D92FB
:1059E0009A95E9F720A131A1F20131A320A398E211
:1059F00094A70BA51CA52DA53EA502A313A324A324
:105A000035A30FA518A929A93AA906A317A320A76A
:105A100031A782A7F1018081918193838283F12C48
:105A200080E2782E91EC892E20ECB22EAAA4689404
:105A3000A7F835E8932EEE24EA94E60C41E2C42E52
:105A400046E5D42EF61409F476C041E06F2DC2016C
:105A50000E94A41A8C01009709F4B2CCDC018C914D
:105A600087FDAECCF801272D11922A95E9F7F110A8
:105A70002EC09C92F201E3A61196EC92E091E40311
:105A8000F091E5033097D9F0AE01475D5F4FBE015D
:105A90006B5D7F4FCE01879619958FA198A5D80190
:105AA0001B969C938E931A978DA19EA119969C93F9
:105AB0008E93189789A554968C93F394C3CFF801CD
:105AC000D386C286D786C686D38AC28AF6CFF1E04D
:105AD000FF1211C0BC921196FC92F201A6A6D10150
